{
  "contractName": "Bytes32ToString",
  "abi": [
    {
      "constant": true,
      "inputs": [
        {
          "name": "_bytes32",
          "type": "bytes32"
        }
      ],
      "name": "bytes32ToStr",
      "outputs": [
        {
          "name": "",
          "type": "string"
        }
      ],
      "payable": false,
      "stateMutability": "view",
      "type": "function"
    }
  ],
  "bytecode": "0x6101f2610030600b82828239805160001a6073146000811461002057610022565bfe5b5030600052607381538281f3007300000000000000000000000000000000000000003014608060405260043610610058576000357c0100000000000000000000000000000000000000000000000000000000900463ffffffff168063ef0b23681461005d575b600080fd5b61007f60048036038101908080356000191690602001909291905050506100fa565b6040518080602001828103825283818151815260200191508051906020019080838360005b838110156100bf5780820151818401526020810190506100a4565b50505050905090810190601f1680156100ec5780820380516001836020036101000a031916815260200191505b509250505060405180910390f35b606080600060206040519080825280601f01601f1916602001820160405280156101335781602001602082028038833980820191505090505b5091505b60208110156101bc57838160208110151561014e57fe5b1a7f010000000000000000000000000000000000000000000000000000000000000002828281518110151561017f57fe5b9060200101907effffffffffffffffffffffffffffffffffffffffffffffffffffffffffffff1916908160001a9053508080600101915050610137565b81925050509190505600a165627a7a723058203300d9ad2cb30f4a0604bae9efd73665afffe8d1fbeb3e4719c45e8093d753120029",
  "source": "pragma solidity ^0.4.24;\n\nlibrary Bytes32ToString {\n    function bytes32ToStr(bytes32 _bytes32) public constant returns (string){\n        // string memory str = string(_bytes32);\n        // TypeError: Explicit type conversion not allowed from \"bytes32\" to \"string storage pointer\"\n        // thus we should fist convert bytes32 to bytes (to dynamically-sized byte array)\n\n        bytes memory bytesArray = new bytes(32);\n        for (uint256 i; i < 32; i++) {\n            bytesArray[i] = _bytes32[i];\n        }\n\n        return string(bytesArray);\n    }\n}\n",
  "sourcePath": "/Users/jonybang/workspace/zeligen-contracts/contracts/Bytes32ToString.sol",
  "compiler": {
    "name": "solc",
    "version": "0.4.24+commit.e67f0147.Emscripten.clang"
  },
  "schemaVersion": "2.0.1",
  "updatedAt": "2018-07-05T21:21:15.034Z"
}