{
  "contractName": "Marketplace",
  "abi": [
    {
      "constant": true,
      "inputs": [],
      "name": "seller",
      "outputs": [
        {
          "name": "",
          "type": "address"
        }
      ],
      "payable": false,
      "stateMutability": "view",
      "type": "function"
    },
    {
      "constant": false,
      "inputs": [],
      "name": "unpause",
      "outputs": [],
      "payable": false,
      "stateMutability": "nonpayable",
      "type": "function"
    },
    {
      "constant": true,
      "inputs": [],
      "name": "timeToSellReserve",
      "outputs": [
        {
          "name": "",
          "type": "uint256"
        }
      ],
      "payable": false,
      "stateMutability": "view",
      "type": "function"
    },
    {
      "constant": true,
      "inputs": [
        {
          "name": "",
          "type": "bytes32"
        }
      ],
      "name": "auctionByType",
      "outputs": [
        {
          "name": "id",
          "type": "bytes32"
        },
        {
          "name": "price",
          "type": "uint256"
        },
        {
          "name": "reservePrice",
          "type": "uint256"
        },
        {
          "name": "expiresAt",
          "type": "uint256"
        },
        {
          "name": "active",
          "type": "bool"
        }
      ],
      "payable": false,
      "stateMutability": "view",
      "type": "function"
    },
    {
      "constant": true,
      "inputs": [],
      "name": "paused",
      "outputs": [
        {
          "name": "",
          "type": "bool"
        }
      ],
      "payable": false,
      "stateMutability": "view",
      "type": "function"
    },
    {
      "constant": false,
      "inputs": [],
      "name": "destroy",
      "outputs": [],
      "payable": false,
      "stateMutability": "nonpayable",
      "type": "function"
    },
    {
      "constant": false,
      "inputs": [],
      "name": "pause",
      "outputs": [],
      "payable": false,
      "stateMutability": "nonpayable",
      "type": "function"
    },
    {
      "constant": true,
      "inputs": [
        {
          "name": "",
          "type": "uint256"
        }
      ],
      "name": "buyByReserve",
      "outputs": [
        {
          "name": "id",
          "type": "bytes32"
        },
        {
          "name": "buyer",
          "type": "address"
        },
        {
          "name": "price",
          "type": "uint256"
        },
        {
          "name": "payed",
          "type": "uint256"
        },
        {
          "name": "expiresAt",
          "type": "uint256"
        },
        {
          "name": "sold",
          "type": "bool"
        }
      ],
      "payable": false,
      "stateMutability": "view",
      "type": "function"
    },
    {
      "constant": true,
      "inputs": [],
      "name": "owner",
      "outputs": [
        {
          "name": "",
          "type": "address"
        }
      ],
      "payable": false,
      "stateMutability": "view",
      "type": "function"
    },
    {
      "constant": false,
      "inputs": [
        {
          "name": "newOwner",
          "type": "address"
        }
      ],
      "name": "transferOwnership",
      "outputs": [],
      "payable": false,
      "stateMutability": "nonpayable",
      "type": "function"
    },
    {
      "constant": false,
      "inputs": [
        {
          "name": "_recipient",
          "type": "address"
        }
      ],
      "name": "destroyAndSend",
      "outputs": [],
      "payable": false,
      "stateMutability": "nonpayable",
      "type": "function"
    },
    {
      "constant": true,
      "inputs": [],
      "name": "token",
      "outputs": [
        {
          "name": "",
          "type": "address"
        }
      ],
      "payable": false,
      "stateMutability": "view",
      "type": "function"
    },
    {
      "inputs": [
        {
          "name": "_token",
          "type": "address"
        },
        {
          "name": "_seller",
          "type": "address"
        }
      ],
      "payable": false,
      "stateMutability": "nonpayable",
      "type": "constructor"
    },
    {
      "anonymous": false,
      "inputs": [
        {
          "indexed": false,
          "name": "id",
          "type": "bytes32"
        },
        {
          "indexed": true,
          "name": "assetType",
          "type": "bytes32"
        },
        {
          "indexed": false,
          "name": "price",
          "type": "uint256"
        },
        {
          "indexed": false,
          "name": "reservePrice",
          "type": "uint256"
        },
        {
          "indexed": false,
          "name": "expiresAt",
          "type": "uint256"
        }
      ],
      "name": "AuctionCreated",
      "type": "event"
    },
    {
      "anonymous": false,
      "inputs": [
        {
          "indexed": false,
          "name": "id",
          "type": "bytes32"
        },
        {
          "indexed": true,
          "name": "assetId",
          "type": "uint256"
        }
      ],
      "name": "AuctionFinished",
      "type": "event"
    },
    {
      "anonymous": false,
      "inputs": [
        {
          "indexed": false,
          "name": "id",
          "type": "bytes32"
        },
        {
          "indexed": true,
          "name": "reserveId",
          "type": "uint256"
        },
        {
          "indexed": true,
          "name": "buyer",
          "type": "address"
        },
        {
          "indexed": false,
          "name": "payed",
          "type": "uint256"
        },
        {
          "indexed": false,
          "name": "price",
          "type": "uint256"
        }
      ],
      "name": "NewBuy",
      "type": "event"
    },
    {
      "anonymous": false,
      "inputs": [
        {
          "indexed": false,
          "name": "id",
          "type": "bytes32"
        },
        {
          "indexed": true,
          "name": "reserveId",
          "type": "uint256"
        },
        {
          "indexed": true,
          "name": "buyer",
          "type": "address"
        },
        {
          "indexed": false,
          "name": "payed",
          "type": "uint256"
        },
        {
          "indexed": false,
          "name": "totalPayed",
          "type": "uint256"
        }
      ],
      "name": "PayBuy",
      "type": "event"
    },
    {
      "anonymous": false,
      "inputs": [],
      "name": "Pause",
      "type": "event"
    },
    {
      "anonymous": false,
      "inputs": [],
      "name": "Unpause",
      "type": "event"
    },
    {
      "anonymous": false,
      "inputs": [
        {
          "indexed": true,
          "name": "previousOwner",
          "type": "address"
        },
        {
          "indexed": true,
          "name": "newOwner",
          "type": "address"
        }
      ],
      "name": "OwnershipTransferred",
      "type": "event"
    },
    {
      "constant": false,
      "inputs": [
        {
          "name": "_assetType",
          "type": "bytes32"
        },
        {
          "name": "_price",
          "type": "uint256"
        },
        {
          "name": "_reservePrice",
          "type": "uint256"
        },
        {
          "name": "_expiresAt",
          "type": "uint256"
        }
      ],
      "name": "createAuction",
      "outputs": [],
      "payable": false,
      "stateMutability": "nonpayable",
      "type": "function"
    },
    {
      "constant": false,
      "inputs": [
        {
          "name": "assetType",
          "type": "bytes32"
        }
      ],
      "name": "buy",
      "outputs": [
        {
          "name": "",
          "type": "uint256"
        }
      ],
      "payable": true,
      "stateMutability": "payable",
      "type": "function"
    },
    {
      "constant": false,
      "inputs": [
        {
          "name": "reserveId",
          "type": "uint256"
        }
      ],
      "name": "payToBuy",
      "outputs": [],
      "payable": true,
      "stateMutability": "payable",
      "type": "function"
    },
    {
      "constant": false,
      "inputs": [
        {
          "name": "tokenId",
          "type": "uint256"
        }
      ],
      "name": "isSold",
      "outputs": [
        {
          "name": "",
          "type": "bool"
        }
      ],
      "payable": false,
      "stateMutability": "nonpayable",
      "type": "function"
    },
    {
      "constant": false,
      "inputs": [
        {
          "name": "tokenId",
          "type": "uint256"
        }
      ],
      "name": "buyerOf",
      "outputs": [
        {
          "name": "",
          "type": "address"
        }
      ],
      "payable": false,
      "stateMutability": "nonpayable",
      "type": "function"
    },
    {
      "constant": false,
      "inputs": [
        {
          "name": "period",
          "type": "uint256"
        }
      ],
      "name": "setTimeToSellReserve",
      "outputs": [],
      "payable": false,
      "stateMutability": "nonpayable",
      "type": "function"
    }
  ],
  "bytecode": "0x608060405260008060146101000a81548160ff02191690831515021790555034801561002a57600080fd5b506040516040806114168339810180604052810190808051906020019092919080519060200190929190505050336000806101000a81548173ffffffffffffffffffffffffffffffffffffffff021916908373ffffffffffffffffffffffffffffffffffffffff16021790555081600160006101000a81548173ffffffffffffffffffffffffffffffffffffffff021916908373ffffffffffffffffffffffffffffffffffffffff16021790555080600260006101000a81548173ffffffffffffffffffffffffffffffffffffffff021916908373ffffffffffffffffffffffffffffffffffffffff16021790555062093a8060038190555050506112e2806101346000396000f3006080604052600436106100fc576000357c0100000000000000000000000000000000000000000000000000000000900463ffffffff1680630110a1761461010157806308551a53146101465780633f4ba83a1461019d5780634ab887ff146101b4578063545f0caa146101df5780635c975abb1461024c57806383197ef01461027b5780638456cb59146102925780638c609201146102a95780638da5cb5b146103455780639ba4b0171461039c5780639c0b3e35146103bc5780639c9a10611461040b578063da0ade5014610443578063eef8e2fc146104b0578063f2fde38b146104dd578063f5074f4114610520578063fc0c546a14610563575b600080fd5b34801561010d57600080fd5b5061012c600480360381019080803590602001909291905050506105ba565b604051808215151515815260200191505060405180910390f35b34801561015257600080fd5b5061015b6105e7565b604051808273ffffffffffffffffffffffffffffffffffffffff1673ffffffffffffffffffffffffffffffffffffffff16815260200191505060405180910390f35b3480156101a957600080fd5b506101b261060d565b005b3480156101c057600080fd5b506101c96106cb565b6040518082815260200191505060405180910390f35b3480156101eb57600080fd5b5061020e60048036038101908080356000191690602001909291905050506106d1565b604051808660001916600019168152602001858152602001848152602001838152602001821515151581526020019550505050505060405180910390f35b34801561025857600080fd5b50610261610714565b604051808215151515815260200191505060405180910390f35b34801561028757600080fd5b50610290610727565b005b34801561029e57600080fd5b506102a76107bc565b005b3480156102b557600080fd5b506102d46004803603810190808035906020019092919050505061087c565b6040518087600019166000191681526020018673ffffffffffffffffffffffffffffffffffffffff1673ffffffffffffffffffffffffffffffffffffffff16815260200185815260200184815260200183815260200182151515158152602001965050505050505060405180910390f35b34801561035157600080fd5b5061035a6108e5565b604051808273ffffffffffffffffffffffffffffffffffffffff1673ffffffffffffffffffffffffffffffffffffffff16815260200191505060405180910390f35b6103ba6004803603810190808035906020019092919050505061090a565b005b3480156103c857600080fd5b506104096004803603810190808035600019169060200190929190803590602001909291908035906020019092919080359060200190929190505050610a78565b005b61042d6004803603810190808035600019169060200190929190505050610c4c565b6040518082815260200191505060405180910390f35b34801561044f57600080fd5b5061046e60048036038101908080359060200190929190505050611005565b604051808273ffffffffffffffffffffffffffffffffffffffff1673ffffffffffffffffffffffffffffffffffffffff16815260200191505060405180910390f35b3480156104bc57600080fd5b506104db60048036038101908080359060200190929190505050611045565b005b3480156104e957600080fd5b5061051e600480360381019080803573ffffffffffffffffffffffffffffffffffffffff1690602001909291905050506110ab565b005b34801561052c57600080fd5b50610561600480360381019080803573ffffffffffffffffffffffffffffffffffffffff169060200190929190505050611200565b005b34801561056f57600080fd5b50610578611274565b604051808273ffffffffffffffffffffffffffffffffffffffff1673ffffffffffffffffffffffffffffffffffffffff16815260200191505060405180910390f35b60006005600083815260200190815260200160002060050160009054906101000a900460ff169050919050565b600260009054906101000a900473ffffffffffffffffffffffffffffffffffffffff1681565b6000809054906101000a900473ffffffffffffffffffffffffffffffffffffffff1673ffffffffffffffffffffffffffffffffffffffff163373ffffffffffffffffffffffffffffffffffffffff1614151561066857600080fd5b600060149054906101000a900460ff16151561068357600080fd5b60008060146101000a81548160ff0219169083151502179055507f7805862f689e2f13df9f062ff482ad3ad112aca9e0847911ed832e158c525b3360405160405180910390a1565b60035481565b60046020528060005260406000206000915090508060000154908060010154908060020154908060030154908060040160009054906101000a900460ff16905085565b600060149054906101000a900460ff1681565b6000809054906101000a900473ffffffffffffffffffffffffffffffffffffffff1673ffffffffffffffffffffffffffffffffffffffff163373ffffffffffffffffffffffffffffffffffffffff1614151561078257600080fd5b6000809054906101000a900473ffffffffffffffffffffffffffffffffffffffff1673ffffffffffffffffffffffffffffffffffffffff16ff5b6000809054906101000a900473ffffffffffffffffffffffffffffffffffffffff1673ffffffffffffffffffffffffffffffffffffffff163373ffffffffffffffffffffffffffffffffffffffff1614151561081757600080fd5b600060149054906101000a900460ff1615151561083357600080fd5b6001600060146101000a81548160ff0219169083151502179055507f6985a02210a168e66602d3235cb6db0e70f92b3ba4d376a33c0f3d9434bff62560405160405180910390a1565b60056020528060005260406000206000915090508060000154908060010160009054906101000a900473ffffffffffffffffffffffffffffffffffffffff16908060020154908060030154908060040154908060050160009054906101000a900460ff16905086565b6000809054906101000a900473ffffffffffffffffffffffffffffffffffffffff1681565b600080600560008481526020019081526020016000206003015411151561093057600080fd5b42600560008481526020019081526020016000206004015411151561095457600080fd5b34905061098081600560008581526020019081526020016000206003015461129a90919063ffffffff16565b600560008481526020019081526020016000206003018190555060056000838152602001908152602001600020600201548110156005600084815260200190815260200160002060050160006101000a81548160ff0219169083151502179055503373ffffffffffffffffffffffffffffffffffffffff16827f7999b4ea019c7f3fc3cdbe53c7f985568a29833d3331965b7ab5e773b9e2c8566005600086815260200190815260200160002060000154846005600088815260200190815260200160002060030154604051808460001916600019168152602001838152602001828152602001935050505060405180910390a35050565b6000600260009054906101000a900473ffffffffffffffffffffffffffffffffffffffff1673ffffffffffffffffffffffffffffffffffffffff163373ffffffffffffffffffffffffffffffffffffffff16141515610ad657600080fd5b600084111515610ae557600080fd5b828410151515610af457600080fd5b610b09610e104261129a90919063ffffffff16565b82111515610b1657600080fd5b428585856040518085815260200184600019166000191681526020018381526020018281526020019450505050506040518091039020905060a06040519081016040528082600019168152602001858152602001848152602001838152602001600115158152506004600087600019166000191681526020019081526020016000206000820151816000019060001916905560208201518160010155604082015181600201556060820151816003015560808201518160040160006101000a81548160ff02191690831515021790555090505084600019167fdd65a9882ea6b7fa570d3f9e932b7b894db5afa979fee34edf40b58c6a74d76e8286868660405180856000191660001916815260200184815260200183815260200182815260200194505050505060405180910390a25050505050565b60008060008060046000866000191660001916815260200190815260200160002060040160009054906101000a900460ff161515610c8957600080fd5b4260046000876000191660001916815260200190815260200160002060030154111515610cb557600080fd5b349250600160009054906101000a900473ffffffffffffffffffffffffffffffffffffffff1673ffffffffffffffffffffffffffffffffffffffff16632cfd300533876040518363ffffffff167c0100000000000000000000000000000000000000000000000000000000028152600401808373ffffffffffffffffffffffffffffffffffffffff1673ffffffffffffffffffffffffffffffffffffffff168152602001826000191660001916815260200192505050602060405180830381600087803b158015610d8557600080fd5b505af1158015610d99573d6000803e3d6000fd5b505050506040513d6020811015610daf57600080fd5b8101908080519060200190929190505050915042338385604051808581526020018473ffffffffffffffffffffffffffffffffffffffff1673ffffffffffffffffffffffffffffffffffffffff166c010000000000000000000000000281526014018381526020018281526020019450505050506040518091039020905060c060405190810160405280826000191681526020013373ffffffffffffffffffffffffffffffffffffffff168152602001600460008860001916600019168152602001908152602001600020600101548152602001848152602001610e9e6003544261129a90919063ffffffff16565b8152602001600460008860001916600019168152602001908152602001600020600101548510151515815250600560008481526020019081526020016000206000820151816000019060001916905560208201518160010160006101000a81548173ffffffffffffffffffffffffffffffffffffffff021916908373ffffffffffffffffffffffffffffffffffffffff16021790555060408201518160020155606082015181600301556080820151816004015560a08201518160050160006101000a81548160ff0219169083151502179055509050503373ffffffffffffffffffffffffffffffffffffffff16827f4fa1d64cf6dfa805ab45d8203c4d5fa78ded17f806acd5294960c3b2aa735a2e8386600460008b6000191660001916815260200190815260200160002060010154604051808460001916600019168152602001838152602001828152602001935050505060405180910390a3819350505050919050565b60006005600083815260200190815260200160002060010160009054906101000a900473ffffffffffffffffffffffffffffffffffffffff169050919050565b600260009054906101000a900473ffffffffffffffffffffffffffffffffffffffff1673ffffffffffffffffffffffffffffffffffffffff163373ffffffffffffffffffffffffffffffffffffffff161415156110a157600080fd5b8060038190555050565b6000809054906101000a900473ffffffffffffffffffffffffffffffffffffffff1673ffffffffffffffffffffffffffffffffffffffff163373ffffffffffffffffffffffffffffffffffffffff1614151561110657600080fd5b600073ffffffffffffffffffffffffffffffffffffffff168173ffffffffffffffffffffffffffffffffffffffff161415151561114257600080fd5b8073ffffffffffffffffffffffffffffffffffffffff166000809054906101000a900473ffffffffffffffffffffffffffffffffffffffff1673ffffffffffffffffffffffffffffffffffffffff167f8be0079c531659141344cd1fd0a4f28419497f9722a3daafe3b4186f6b6457e060405160405180910390a3806000806101000a81548173ffffffffffffffffffffffffffffffffffffffff021916908373ffffffffffffffffffffffffffffffffffffffff16021790555050565b6000809054906101000a900473ffffffffffffffffffffffffffffffffffffffff1673ffffffffffffffffffffffffffffffffffffffff163373ffffffffffffffffffffffffffffffffffffffff1614151561125b57600080fd5b8073ffffffffffffffffffffffffffffffffffffffff16ff5b600160009054906101000a900473ffffffffffffffffffffffffffffffffffffffff1681565b600081830190508281101515156112ad57fe5b809050929150505600a165627a7a72305820a06f00388a2d031fae6d78487e2cc66580b23da124aafe3a001d0abfb1c1522e0029",
  "source": "pragma solidity ^0.4.24;\n\nimport \"openzeppelin-solidity/contracts/ownership/Ownable.sol\";\nimport \"openzeppelin-solidity/contracts/lifecycle/Pausable.sol\";\nimport \"openzeppelin-solidity/contracts/lifecycle/Destructible.sol\";\nimport \"openzeppelin-solidity/contracts/math/SafeMath.sol\";\n\nimport \"./ZeligenToken.sol\";\n\ncontract Marketplace is Ownable, Pausable, Destructible {\n    using SafeMath for uint256;\n\n    ZeligenToken public token;\n    address public seller;\n\n    uint256 public timeToSellReserve;\n\n    struct Auction {\n        // Auction ID\n        bytes32 id;\n        // Price (in wei) for the published item\n        uint256 price;\n        // Price to buy reserve\n        uint256 reservePrice;\n        // Time when this sale ends\n        uint256 expiresAt;\n        // Is auction active\n        bool active;\n    }\n\n    mapping (bytes32 => Auction) public auctionByType;\n\n    struct Buy {\n        // Buy ID\n        bytes32 id;\n        // Buyer\n        address buyer;\n        // Price (in wei) for the published item\n        uint256 price;\n        // Payed (in wei) for the published item\n        uint256 payed;\n        // Time when this sale ends\n        uint256 expiresAt;\n        // Is auction active\n        bool sold;\n    }\n\n    mapping (uint256 => Buy) public buyByReserve;\n\n    /* EVENTS */\n    event AuctionCreated(\n        bytes32 id,\n        bytes32 indexed assetType,\n        uint256 price,\n        uint256 reservePrice,\n        uint256 expiresAt\n    );\n    event AuctionFinished(\n        bytes32 id,\n        uint256 indexed assetId\n    );\n    event NewBuy(\n        bytes32 id,\n        uint256 indexed reserveId,\n        address indexed buyer,\n        uint256 payed,\n        uint256 price\n    );\n    event PayBuy(\n        bytes32 id,\n        uint256 indexed reserveId,\n        address indexed buyer,\n        uint256 payed,\n        uint256 totalPayed\n    );\n\n    constructor (address _token, address _seller) public {\n        token = ZeligenToken(_token);\n        seller = _seller;\n\n        timeToSellReserve = 1 weeks;\n    }\n\n    function createAuction(bytes32 _assetType, uint256 _price, uint256 _reservePrice, uint256 _expiresAt) onlySeller {\n        require(_price > 0);\n        require(_price >= _reservePrice);\n        require(_expiresAt > now.add(1 hours));\n\n        bytes32 auctionId = keccak256(\n            block.timestamp,\n            _assetType,\n            _price,\n            _reservePrice\n        );\n\n        auctionByType[_assetType] = Auction({\n            id: auctionId,\n            price: _price,\n            reservePrice: _reservePrice,\n            expiresAt: _expiresAt,\n            active: true\n        });\n\n        emit AuctionCreated(\n            auctionId,\n            _assetType,\n            _price,\n            _reservePrice,\n            _expiresAt\n        );\n    }\n\n    function buy(bytes32 assetType) public payable returns (uint256) {\n        require(auctionByType[assetType].active);\n        require(auctionByType[assetType].expiresAt > now);\n\n        uint256 weiAmount = msg.value;\n\n        //require(weiAmount >= auctionByType[assetType].reservePrice);\n\n        uint256 reserveId = token.mint(msg.sender, assetType);\n\n        bytes32 buyId = keccak256(\n            block.timestamp,\n            msg.sender,\n            reserveId,\n            weiAmount\n        );\n\n        buyByReserve[reserveId] = Buy({\n            id: buyId,\n            buyer: msg.sender,\n            price: auctionByType[assetType].price,\n            payed: weiAmount,\n            expiresAt: now.add(timeToSellReserve),\n            sold: weiAmount >= auctionByType[assetType].price\n        });\n\n        emit NewBuy(\n            buyId,\n            reserveId,\n            msg.sender,\n            weiAmount,\n            auctionByType[assetType].price\n        );\n\n        return reserveId;\n    }\n\n    function payToBuy(uint256 reserveId) public payable {\n        require(buyByReserve[reserveId].payed > 0);\n        require(buyByReserve[reserveId].expiresAt > now);\n\n        uint256 weiAmount = msg.value;\n\n        buyByReserve[reserveId].payed = buyByReserve[reserveId].payed.add(weiAmount);\n        buyByReserve[reserveId].sold = weiAmount >= buyByReserve[reserveId].price;\n\n        emit PayBuy(\n            buyByReserve[reserveId].id,\n            reserveId,\n            msg.sender,\n            weiAmount,\n            buyByReserve[reserveId].payed\n        );\n    }\n\n    function isSold(uint256 tokenId) returns(bool) {\n        return buyByReserve[tokenId].sold;\n    }\n\n    function buyerOf(uint256 tokenId) returns(address) {\n        return buyByReserve[tokenId].buyer;\n    }\n\n    function setTimeToSellReserve(uint256 period) onlySeller {\n        timeToSellReserve = period;\n    }\n\n    modifier onlySeller() {\n        require(msg.sender == seller);\n        _;\n    }\n }\n",
  "sourcePath": "/Users/jonybang/workspace/zeligen-contracts/contracts/Marketplace.sol",
  "compiler": {
    "name": "solc",
    "version": "0.4.24+commit.e67f0147.Emscripten.clang"
  },
  "schemaVersion": "2.0.1",
  "updatedAt": "2018-07-05T22:31:00.073Z"
}